S01A00006769726F73636F70696F5F323032335F49492E73726563B5
S11300000C9434000C9446000C9446000C94460066
S11300100C9446000C9446000C9446000C94460044
S11300200C9446000C9446000C9446000C94460034
S11300300C9446000C9446000C9446000C94460024
S11300400C9446000C9446000C94F0000C9446006A
S11300500C9446000C9446000C9446000C94460004
S11300600C9446000C94460011241FBECFEFD8E038
S1130070DEBFCDBF21E0A0E0B1E001C01D92A13000
S1130080B207E1F70E9477000C941D010C94000064
S11300901092B90084E18093B80084E08093BC009E
S11300A0089584EA8093BC008091BC008823E4F71F
S11300B0089584E98093BC008FE99FE00197F1F7EC
S11300C000C0000008958093BB0084EC8093BC00C2
S11300D08091BC008823E4F7089584E88093BC00F1
S11300E08091BC008823E4F78091BB0008950E94AE
S11300F0C1000E94B20080E090E00895CF93DF93A6
S1130100D82FC62F0E94510080ED0E9463008D2FCE
S11301100E9463008C2F0E9463000E945900DF91AB
S1130120CF9108951F93CF93DF931F92CDB7DEB77E
S1130130182F19820E94510080ED0E946300812FC4
S11301400E9463000E94510081ED0E9463000E949E
S11301506D0089830E94590089810F90DF91CF91AE
S11301601F91089584B114B885E70E94920088769F
S1130170883621F485B1806285B9089585B115B8B2
S113018008950E94480025E32A95F1F700008FEFB7
S113019091EE24E0815090402040E1F700C000003F
S11301A060E08BE60E947E0061E08BE60E947E00A8
S11301B063E08AE10E947E0064E089E10E947E009F
S11301C068E18BE10E947E0068E18CE10E947E0080
S11301D008959091C00095FFFCCF8093C6000895C8
S11301E01F920F920FB60F9211242F933F934F93A8
S11301F05F936F937F938F939F93AF93BF93EF938B
S1130200FF938091C6008093000180E40E94E9007E
S1130210809100010E94E900FF91EF91BF91AF919D
S11302209F918F917F916F915F914F913F912F910A
S11102300F900FBE0F901F901895F894FFCFFB
S9030000FC
